:100000000C9463000C948B000C948B000C941907D7
:100010000C9419070C9419070C948B000C948B000A
:100020000C948B000C948B000C948B000C948B0024
:100030000C948B000C948B000C948B000C948B0014
:100040000C94CF060C948B000C949D060C947706B0
:100050000C948B000C948B000C948B000C948B00F4
:100060000C948B000C948B000000000024002700EF
:100070002A0000000008000201000003040700003D
:1000800000000000000000000000230026002900FE
:1000900000000000250028002B00040404040404D0
:1000A0000404020202020202030303030303010227
:1000B00004081020408001020408102001020408F6
:1000C00010209107D90A11241FBECFEFD8E0DEBF60
:1000D000CDBF12E0A0E0B1E0ECE1FBE102C0059091
:1000E0000D92AC33B107D9F723E0ACE3B2E001C025
:1000F0001D92A43DB207E1F710E0C2E6D0E004C0D3
:100100002197FE010E947B0DC136D107C9F70E94DD
:10011000E1080C94810D0C94000080E480937C0035
:1001200080917A00806480937A0080917A0086FDC5
:10013000FCCF80917800909179000895AF92BF92A2
:10014000CF92DF92EF92FF920F931F93CF93DF93A3
:100150006C017B018B01040F151FEB015E01AE18D2
:10016000BF08C017D10759F06991D601ED91FC91F4
:100170000190F081E02DC6010995892B79F7C50121
:10018000DF91CF911F910F91FF90EF90DF90CF9073
:10019000BF90AF900895FC01538D448D252F30E022
:1001A000842F90E0821B930B541710F0CF96089584
:1001B00001970895FC01918D828D981761F0A28DB1
:1001C000AE0FBF2FB11D5D968C91928D9F5F9F7377
:1001D000928F90E008958FEF9FEF0895FC01918D2D
:1001E000828D981731F0828DE80FF11D858D90E09A
:1001F00008958FEF9FEF0895FC01918D228D892F37
:1002000090E0805C9F4F821B91098F73992708951E
:100210008DE892E00E94FC0021E0892B09F420E0A7
:10022000822F089580E090E0892B29F00E94080138
:1002300081110C9400000895FC01A48DA80FB92F22
:10024000B11DA35ABF4F2C91848D90E001968F73FE
:100250009927848FA689B7892C93A089B1898C911D
:10026000837080648C93938D848D981306C002886C
:10027000F389E02D80818F7D80830895EF92FF9236
:100280000F931F93CF93DF93EC0181E0888F9B8DB9
:100290008C8D98131AC0E889F989808185FF15C073
:1002A0009FB7F894EE89FF896083E889F989808196
:1002B0008370806480839FBF81E090E0DF91CF9165
:1002C0001F910F91FF90EF900895F62E0B8D10E087
:1002D0000F5F1F4F0F731127E02E8C8D8E110CC0F6
:1002E0000FB607FCFACFE889F989808185FFF5CF41
:1002F000CE010E941C01F1CFEB8DEC0FFD2FF11D03
:10030000E35AFF4FF0829FB7F8940B8FEA89FB897D
:1003100080818062CFCFCF93DF93EC01888D8823DB
:10032000B9F0AA89BB89E889F9898C9185FD03C058
:10033000808186FD0DC00FB607FCF7CF8C9185FF3D
:10034000F2CF808185FFEDCFCE010E941C01E9CF65
:10035000DF91CF91089590E0FC01EE58FF4F24917A
:10036000FC01E255FF4F3491FC01E656FF4FE4914A
:10037000EE23C9F0222339F0233001F1A8F4213013
:1003800019F1223029F1F0E0EE0FFF1FE057FF4F87
:10039000A591B4918FB7F894EC91611126C0309576
:1003A0003E233C938FBF08952730A9F02830C9F031
:1003B000243049F7809180008F7D03C080918000B8
:1003C0008F7780938000DFCF84B58F7784BDDBCFBC
:1003D00084B58F7DFBCF8091B0008F778093B00084
:1003E000D2CF8091B0008F7DF9CF3E2BDACFCF9363
:1003F000DF9390E0FC01E255FF4F249186569F4F1A
:10040000FC0184918823D1F090E0880F991FFC01B2
:10041000E859FF4FA591B491FC01E057FF4FC591FA
:10042000D49161110EC09FB7F8948C91E22FE095A2
:100430008E238C932881E223E8839FBFDF91CF91A5
:1004400008958FB7F894EC91E22BEC938FBFF6CF21
:100450003FB7F8948091810290918202A09183022B
:10046000B091840226B5A89B05C02F3F19F00196D4
:10047000A11DB11D3FBFBA2FA92F982F8827BC01FE
:10048000CD01620F711D811D911D42E0660F771F26
:10049000881F991F4A95D1F708958F929F92AF9226
:1004A000BF92CF92DF92EF92FF924B015C010E94CC
:1004B00028026B017C010E9428026C197D098E09BB
:1004C0009F09683E734081059105A8F321E0821AD7
:1004D0009108A108B10888EEC80E83E0D81EE11C7F
:1004E000F11C81149104A104B10429F7FF90EF904D
:1004F000DF90CF90BF90AF909F908F900895209104
:100500008702309188022817390771F4909185028B
:1005100080918602981741F0E0918502F0E0E45C5A
:10052000FD4F808190E008958FEF9FEF089508952B
:10053000EF92FF920F931F93CF93DF93DC015C96B2
:10054000ED90FC905D97E114F10479F481E090E086
:1005500013969C938E93129790E080E0DF91CF9159
:100560001F910F91FF90EF9008955196ED91FC919E
:10057000529750968C915097982F90950FB75E9602
:100580002C915E97122F127021FD6095F8942081B6
:10059000112319F1282B2083E7012197F1F728E097
:1005A000462F50E0308160FF1AC0382B3083E701BE
:1005B0002197F1F7BA0175956795215089F71123B5
:1005C00081F08081892380830FBF5C968D919C91FF
:1005D0000197F1F781E090E0C1CF2923DCCF3923E7
:1005E000E5CF9081892BEFCF20918702309188024F
:1005F0002817390771F4809186022091850290E0D6
:10060000805C9F4F821B910960E470E00E94310D75
:10061000089590E080E0089520918702309188024B
:1006200028173907B9F490918502809186029817AE
:1006300089F0E0918502F0E0E45CFD4F808120913B
:10064000850230E02F5F3F4F2F73332720938502C1
:1006500090E008958FEF9FEF0895089590E080E077
:100660000895CF93DF93EC0160E08E810E94AB018F
:1006700061E08E810E94AB0160E08E810E94AB013F
:100680008BE891E00197F1F7DF91CF910895CF9238
:10069000DF92EF92FF920F931F93CF93DF936C0142
:1006A0007C0187E0E80EF11CD0E0C0E0062F10E0EE
:1006B000B8010C2E02C0759567950A94E2F7617037
:1006C000F70181917F010E94AB012196C430D105D1
:1006D00079F7C601DF91CF911F910F91FF90EF90B5
:1006E000DF90CF900C943103CF92DF92EF92FF9284
:1006F0000F931F93CF93DF93EC01F62E642F8C8121
:100700000E94AB018D818F3F19F060E00E94AB0128
:100710000F2D10E08F8584FF25C06E0187E0C80E85
:10072000D11CF12CE12CB8010E2C02C075956795F7
:100730000A94E2F76170F60181916F010E94AB01AA
:10074000FFEFEF1AFF0A88E0E816F10461F7CE0127
:10075000DF91CF911F910F91FF90EF90DF90CF909D
:100760000C943103B80184E0759567958A95E1F79B
:10077000CE010E9447036F2DCE01DF91CF911F91D3
:100780000F91FF90EF90DF90CF900C94470340E0E3
:10079000682F8AE293E00C94740381E00E94C703FF
:1007A0008BE39FE10197F1F70895CF93DF938230B8
:1007B00029F49091390398609093390380933D0315
:1007C00010923E0380E480933F0380E180934003D6
:1007D00080E58093410361E080912E030E94F70140
:1007E00080912F038F3F19F061E00E94F70161E0D3
:1007F000809130030E94F701CAE2D3E09E012A52A1
:1008000033408091390384FD0BC084E090E0219651
:100810002817390744F461E08E810E94F701EECF7A
:1008200088E090E0F4CF8BE39DE00197F1F760E082
:1008300080912E030E94AB0160E0809130030E9402
:10084000AB0180912F038F3F19F060E00E94AB0154
:100850008091390384FD34C063E08AE293E00E9412
:100860004703CBE4D6E4CE010197F1F763E08AE2D7
:1008700093E00E9447032197F1F763E08AE293E057
:100880000E94470383E592E00197F1F762E08AE274
:1008900093E00E9447038091390380620E94C7035E
:1008A00084E080933A038CE00E94C7030E94CD034A
:1008B00082E080933B0386E0DF91CF910C94C703E5
:1008C00080620E94C7038BE496E40197F1F7809160
:1008D000390380620E94C70383E592E00197F1F734
:1008E0008091390380620E94C703D5CF90913D0368
:1008F000691710F06FEF690FE62FF0E0E65DFC4F2F
:100900009489890F80680C94C70341E00E947403A6
:1009100081E090E00895FB0101900020E9F7319714
:10092000AF01461B570BDC01ED91FC910280F38176
:10093000E02D09948F929F92AF92BF92EF92FF9217
:100940000F931F93CF93DF93CDB7DEB7A1970FB669
:10095000F894DEBF0FBECDBF7C01FA01CB0119A216
:10096000223008F42AE08E010F5D1F4F822E912C59
:10097000B12CA12CBF01A50194010E94450DF901E4
:10098000CA016A300CF5605DD8016E938D01232B8E
:10099000242B252B79F790E080E0109721F0BD0102
:1009A000C7010E948B04A1960FB6F894DEBF0FBE5C
:1009B000CDBFDF91CF911F910F91FF90EF90BF902E
:1009C000AF909F908F900895695CDECF2F923F92F9
:1009D0004F925F926F927F928F929F92AF92BF924F
:1009E000CF92DF92EF92FF921F93CF93DF93EC01B0
:1009F0006A017B01722EAB019601CB01B6010E9408
:100A00002C0D68E371E0811126C046015701E8947E
:100A1000B7F82FEF3FEF4FE75FE7C501B4010E9442
:100A20002C0D81110CC02FEF3FEF4FE75FE7C501A1
:100A3000B4010E94620B6CE371E0181664F02FEFB2
:100A40003FEF4FE75FE4C701B6010E94BA0C1816EA
:100A5000B4F460E471E0CE01DF91CF911F91FF907B
:100A6000EF90DF90CF90BF90AF909F908F907F904E
:100A70006F905F904F903F902F900C948B042FEFCE
:100A80003FEF4FE75FECC701B6010E94620B87FDA5
:100A9000E0CF20E030E0A901C701B6010E94620B5F
:100AA000312C212C87FF0DC0E881F9810190F08164
:100AB000E02D6DE2CE0109951C01F7FAF094F7F8EC
:100AC000F09410E060E070E080E09FE3711641F088
:100AD00020E030E040E251E40E94670B1F5FF6CF58
:100AE000A70196010E94F60A2B013C010E94D90B36
:100AF0004B015C012AE0BC01A401CE010E949A04D2
:100B00007C01E20CF31C1123E1F1C501B4010E9448
:100B1000080C9B01AC01C301B2010E94F50A4B0114
:100B20005C01E881F9810190F081E02D6EE2CE0157
:100B30000995E80EF91E115020F120E030E040E266
:100B400051E4C501B4010E94BF0C2B013C010E947D
:100B5000D90B4B01B12CA12C2AE0B501A401CE0187
:100B60000E949A04E80EF91EC501B4010E94080C07
:100B70009B01AC01C301B2010E94F50A4B015C016B
:100B8000DACFC701DF91CF911F91FF90EF90DF90F7
:100B9000CF90BF90AF909F908F907F906F905F901D
:100BA0004F903F902F9008950C948B040E948D00DD
:100BB000BC01990F880B990B0E940A0C20E030E0D1
:100BC0004AEF53E40E94BF0C20E030EC4FE754E4BE
:100BD0000E94670B6093890270938A0280938B0254
:100BE00090938C0264E471E08DE892E00E94D40559
:100BF00060E571E08DE892E00E94D40540918902A1
:100C000050918A0260918B0270918C0222E08DE8F3
:100C100092E00E94E60462E571E08DE892E00E94B5
:100C20008B040E94CD0360E080E00E94760465E5BD
:100C300071E08AE293E00E94D40561E084E00E94C2
:100C400076044091890250918A0260918B027091E2
:100C50008C0222E08AE293E00E94E60461E08AE2EC
:100C600093E00E94850464E671E08AE293E00E94CA
:100C7000D40568EE73E080E090E00E944D020E948F
:100C8000CD0360E080E00E94760466E671E08AE2CF
:100C900093E00E94D40561E084E00E9476046DE751
:100CA00071E08AE293E00E94D40568EE73E080E090
:100CB00090E00E944D020E94CD0360E080E00E941F
:100CC00076046AE871E08AE293E00E94D40561E06C
:100CD00084E00E9476046DE771E08AE293E00E946E
:100CE000D40568EE73E080E090E00C944D021F9212
:100CF0000F920FB60F9211242F933F934F935F9350
:100D00006F937F938F939F93AF93BF93EF93FF93D3
:100D10008DE892E00E941C01FF91EF91BF91AF918D
:100D20009F918F917F916F915F914F913F912F9103
:100D30000F900FBE0F901F9018951F920F920FB635
:100D40000F9211242F938F939F93EF93FF93E09132
:100D50009D02F0919E028081E091A302F091A40295
:100D600082FD1BC090818091A6028F5F8F732091BE
:100D7000A702821741F0E091A602F0E0E357FD4F91
:100D8000958F8093A602FF91EF919F918F912F9164
:100D90000F900FBE0F901F9018958081F4CF1F9277
:100DA0000F920FB60F9211242F933F938F939F931F
:100DB000AF93BF9380917D0290917E02A0917F02BC
:100DC000B091800230917C0223E0230F2D3758F53B
:100DD0000196A11DB11D20937C0280937D0290930A
:100DE0007E02A0937F02B093800280918102909155
:100DF0008202A0918302B09184020196A11DB11DCF
:100E00008093810290938202A0938302B093840224
:100E1000BF91AF919F918F913F912F910F900FBEF6
:100E20000F901F90189526E8230F0296A11DB11D63
:100E3000D2CF1F920F920FB60F9211242F933F9390
:100E40004F935F936F937F938F939F93AF93BF93D2
:100E5000EF93FF93E0918702F0918802309749F079
:100E6000A685B7858585968D91FF14C09C918923B1
:100E7000A1F4FF91EF91BF91AF919F918F917F91DD
:100E80006F915F914F913F912F910F900FBE0F90F7
:100E90001F9018959C91892361F7A389B4899C912F
:100EA0008589809589238C93868997890197F1F7A5
:100EB000608D718DA685B785558538E020E0CB0122
:100EC0000197F1F7822F90E095958795282F4C9107
:100ED000452309F02068315091F7868D81FD2095DA
:100EE0008091860290E001968F7399273091850258
:100EF000381799F0A0918602B0E0A45CBD4F2C9306
:100F000080938602828D938D0197F1F7A389B4892E
:100F10008C919589892B8C93ACCF868D8160868F3F
:100F2000F1CF1092900210928F0288EE93E0A0E031
:100F3000B0E08093910290939202A0939302B093B9
:100F400094022CE031E030938E0220938D0225EC48
:100F500030E030939A022093990224EC30E03093F1
:100F60009C0220939B0220EC30E030939E02209361
:100F70009D0221EC30E03093A00220939F0222ECEE
:100F800030E03093A2022093A10226EC30E03093AF
:100F9000A4022093A3021092A6021092A70210921C
:100FA000A8021092A9021092B8031092B70380937E
:100FB000B9039093BA03A093BB03B093BC038AE236
:100FC00091E09093B6038093B5031092CC031092F6
:100FD000CB031092CE031092CD031092D003109247
:100FE000CF031092D2031092D1036091D3036E7F8E
:100FF0006D7F6093D3036695617081E0682784E01C
:101000000E94AB0161E084E00E94F701E2EBF0E0B6
:10101000E491E093C503EEE9F0E0E491F0E0EE0F37
:10102000FF1FE057FF4F859194919093C7038093E2
:10103000C60360E083E00E94F7018091D30381FD45
:1010400004C061E083E00E94AB0123E02093C10370
:10105000E1EBF0E0E491E093C203EDE9F0E0E4912C
:10106000F0E0EE0FFF1FEA57FF4F859194919093A8
:10107000C4038093C3034FEF5FEFBA014093420371
:1010800050934303609344037093450310924A03C3
:1010900010924B0310924C0310924D038FEF99EC7A
:1010A000AAE9BBE38093520390935303A0935403A4
:1010B000B093550380935A0390935B03A0935C0312
:1010C000B0935D038093620390936303A0936403E2
:1010D000B093650380936A0390936B03A0936C03B2
:1010E000B0936D038093720390937303A093740382
:1010F000B093750340937A0350937B0360937C0312
:1011000070937D038FEF90E090938303809382032D
:1011100040938603509387036093880370938903F9
:1011200040938E0350938F036093900370939103C9
:10113000109296031092970382E08093A703109277
:10114000A8031092A9031092AA031092AB03109265
:10115000AC031092AD031092AE031092B003109244
:10116000AF031092B2031092B10310929803109241
:101170002D0310922C034EE151E050932B0340932A
:101180002A039CE090932E039FEF90932F039BE004
:101190009093300395E09093310394E09093320361
:1011A0002093330380933403109235031092360357
:1011B00010923703109238031092390381E00C9497
:1011C000D503789484B5826084BD84B5816084BD84
:1011D00085B5826085BD85B5816085BD80916E00D5
:1011E000816080936E001092810080918100826006
:1011F0008093810080918100816080938100809143
:1012000080008160809380008091B1008460809331
:10121000B1008091B00081608093B00080917A002D
:10122000846080937A0080917A00826080937A0053
:1012300080917A00816080937A0080917A00806842
:1012400080937A001092C10060E08EE00E94F70166
:1012500060E080E00E94F70161E08AE00E94F7010F
:10126000E0919D02F0919E0282E08083E0919902DC
:10127000F0919A021082E0919B02F0919C028FEC17
:1012800080831092A502E091A102F091A20286E073
:101290008083E0919F02F091A00280818061808331
:1012A000E0919F02F091A002808188608083E091AC
:1012B0009F02F091A002808180688083E0919F026C
:1012C000F091A00280818F7D808382E00E94D5030F
:1012D00088E40E94C703C0E0D1E069918AE293E00C
:1012E0000E94850481E0C830D807B9F760E080E04B
:1012F0000E94760465E971E08AE293E00E94D405D9
:1013000061E080E00E94760467EA71E08AE293E09F
:101310000E94D40568EE73E080E090E00E944D02E8
:101320000E94CD0382E00E94D50360E080E00E942D
:10133000760461EC71E08AE293E00E94D40561E0FA
:1013400080E00E94760466ED71E08AE293E00E94FC
:10135000D4056CED75E080E090E00E944D020E94A3
:10136000CD0382E00E94D50360E080E00E94760415
:1013700064EE71E08AE293E00E94D40561E080E0CF
:101380000E94760468EF71E08AE293E00E94D4053F
:101390006CED75E080E090E00E944D020E94CD036C
:1013A00082E00E94D50360E080E00E94760466E05F
:1013B00072E08AE293E00E94D40561E080E00E943E
:1013C000760464E172E08AE293E00E94D4056CED59
:1013D00075E080E090E00E944D020E94CD0362E241
:1013E00072E08DE892E00E948B0462E571E08DE886
:1013F00092E00E948B041092D0031092CF031092BF
:10140000CE031092CD031092CC031092CB038DE942
:1014100091E09093D2038093D1039091C1039631D0
:1014200008F047C02DEB30E03093CC032093CB0382
:101430002BE931E03093CE032093CD032CE231E051
:101440003093D0032093CF032091680084E098303C
:1014500048F031E09E3008F430E081E001C0880FB0
:101460003A95EAF7822B809368002DE630E09830B9
:1014700050F02BE630E09E3030F02CE630E0963134
:1014800010F030E020E03093C9032093C803292FE7
:1014900030E0983008F080C081E001C0880F9A9554
:1014A000EAF78093CA038091D1039091D203019708
:1014B000F1F78091CF039091D003892B49F1E0910E
:1014C0008702F091880283E0E53BF80709F1309745
:1014D00039F0A389B4899C918589809589238C935F
:1014E0008091D3038E7F8093D30310928602109253
:1014F000850285EB93E09093880280938702E091C8
:10150000C803F091C90380819091CA03892B80831D
:1015100082E00E94D503C0E0D0E00E948D00BC01B3
:10152000990F880B990B0E940A0C20E030E04AEFDB
:1015300053E40E94BF0C20E030EC4FE754E40E94DB
:10154000670B6B017C01C0928902D0928A02E09203
:101550008B02F0928C0220E030E048E452E40E94DA
:10156000BA0C181654F020E030E040EA50E4C7010D
:10157000B6010E94620B60E087FD61E08AE00E9494
:10158000AB010E94D605209741F20E9408018823F2
:1015900021F20E940000C1CF9E3040F42850310952
:1015A00081E001C0880F2A95EAF77BCF2E503109E0
:1015B000F7CF8AE291E09093B6038093B5038091D0
:1015C000870290918802855B934071F4E091C80393
:1015D000F091C90390818091CA038095892380830B
:1015E000109288021092870208955058BB27AA27AC
:1015F0000E940D0B0C94800C0E94720C38F00E941B
:10160000790C20F039F49F3F19F426F40C946F0CF8
:101610000EF4E095E7FB0C94690CE92F0E94910C05
:1016200058F3BA17620773078407950720F079F417
:10163000A6F50C94B30C0EF4E0950B2EBA2FA02D4A
:101640000B01B90190010C01CA01A0011124FF276F
:10165000591B99F0593F50F4503E68F11A16F0406A
:10166000A22F232F342F4427585FF3CF4695379569
:101670002795A795F0405395C9F77EF41F16BA0B2E
:10168000620B730B840BBAF09150A1F0FF0FBB1FDC
:10169000661F771F881FC2F70EC0BA0F621F731F25
:1016A000841F48F4879577956795B795F7959E3F82
:1016B00008F0B0CF9395880F08F09927EE0F979513
:1016C000879508950E94450C08F481E008950E94D2
:1016D0007B0B0C94800C0E94790C58F00E94720CC9
:1016E00040F029F45F3F29F00C94690C51110C94DF
:1016F000B40C0C946F0C0E94910C68F39923B1F315
:10170000552391F3951B550BBB27AA276217730727
:10171000840738F09F5F5F4F220F331F441FAA1FBB
:10172000A9F335D00E2E3AF0E0E832D09150504077
:10173000E695001CCAF72BD0FE2F29D0660F771F25
:10174000881FBB1F261737074807AB07B0E809F00B
:10175000BB0B802DBF01FF2793585F4F3AF09E3F90
:10176000510578F00C94690C0C94B40C5F3FE4F3D1
:10177000983ED4F3869577956795B795F7959F5FD3
:10178000C9F7880F911D9695879597F90895E1E01F
:10179000660F771F881FBB1F621773078407BA077E
:1017A00020F0621B730B840BBA0BEE1F88F7E095D9
:1017B00008950E94990C88F09F5798F0B92F9927A7
:1017C000B751B0F0E1F0660F771F881F991F1AF02C
:1017D000BA95C9F714C0B13091F00E94B30CB1E0D2
:1017E00008950C94B30C672F782F8827B85F39F0D1
:1017F000B93FCCF3869577956795B395D9F73EF4C5
:1018000090958095709561957F4F8F4F9F4F08956C
:10181000E89409C097FB3EF490958095709561958A
:101820007F4F8F4F9F4F9923A9F0F92F96E9BB2740
:101830009395F695879577956795B795F111F8CFBC
:10184000FAF4BB0F11F460FF1BC06F5F7F4F8F4F27
:101850009F4F16C0882311F096E911C0772321F01D
:101860009EE8872F762F05C0662371F096E8862FB5
:1018700070E060E02AF09A95660F771F881FDAF70C
:10188000880F9695879597F90895990F0008550F39
:10189000AA0BE0E8FEEF16161706E807F907C0F0F6
:1018A00012161306E407F50798F0621B730B840BFE
:1018B000950B39F40A2661F0232B242B252B21F4D8
:1018C00008950A2609F4A140A6958FEF811D811D78
:1018D000089597F99F6780E870E060E008959FEFB2
:1018E00080EC089500240A941616170618060906B7
:1018F000089500240A941216130614060506089586
:10190000092E0394000C11F4882352F0BB0F40F40D
:10191000BF2B11F460FF04C06F5F7F4F8F4F9F4F4D
:10192000089557FD9058440F551F59F05F3F71F0CF
:101930004795880F97FB991F61F09F3F79F0879536
:101940000895121613061406551FF2CF4695F1DFBF
:1019500008C0161617061806991FF1CF869571054F
:10196000610508940895E894BB2766277727CB0183
:1019700097F908950E94450C08F48FEF08950E948E
:10198000D20C0C94800C0E94720C38F00E94790CDE
:1019900020F0952311F00C94690C0C946F0C112419
:1019A0000C94B40C0E94910C70F3959FC1F3950FA9
:1019B00050E0551F629FF001729FBB27F00DB11DD3
:1019C000639FAA27F00DB11DAA1F649F6627B00D63
:1019D000A11D661F829F2227B00DA11D621F739F4C
:1019E000B00DA11D621F839FA00D611D221F749F5A
:1019F0003327A00D611D231F849F600D211D822FA1
:101A0000762F6A2F11249F5750409AF0F1F08823C7
:101A10004AF0EE0FFF1FBB1F661F771F881F9150F4
:101A20005040A9F79E3F510580F00C94690C0C942E
:101A3000B40C5F3FE4F3983ED4F3869577956795B1
:101A4000B795F795E7959F5FC1F7FE2B880F911D1E
:101A50009695879597F908950E94450C880B990BE8
:101A6000089597FB072E16F4009407D077FD09D050
:101A70000E94670D07FC05D03EF4909581959F4F1D
:101A80000895709561957F4F0895A1E21A2EAA1BC3
:101A9000BB1BFD010DC0AA1FBB1FEE1FFF1FA2171E
:101AA000B307E407F50720F0A21BB30BE40BF50B1B
:101AB000661F771F881F991F1A9469F760957095A4
:101AC000809590959B01AC01BD01CF010895AA1BA3
:101AD000BB1B51E107C0AA1FBB1FA617B70710F019
:101AE000A61BB70B881F991F5A95A9F7809590954B
:101AF000BC01CD010895EE0FFF1F0590F491E02D7C
:101B0000099410E0C2E6D0E004C0FE010E947B0D03
:0C1B10002196C336D107C9F7F894FFCF27
:101B1C000705070000000000000000003E019E00C9
:101B2C00CB008B01FC00DA00EE0000000000850405
:101B3C009E002E032D030000000098029E002E0331
:101B4C009702F4020C037F026E616E00696E6600F0
:101B5C006F766600696E20446567726565433D006B
:101B6C0009000D0A0054656D7065726174757265BB
:101B7C0020696E204300546F74616C204469736F4C
:101B8C006C766520536F6C6964733A200053656EF4
:101B9C00736F72206572726F720070482076616C80
:101BAC0075653A200020496F5420426173656420AA
:101BBC00576174657220005175616C697479204DA0
:101BCC006F6E69746F72696E672053797374656D8B
:101BDC00004D642E204173687261667572205261EB
:101BEC00686D616E2000323031372D312D36302D3D
:101BFC00313235004D642E20536162626972204887
:101C0C006F737361696E2000323031372D312D3690
:101C1C00302D31313200416D696E756C2049736C19
:101C2C00616D2000323031372D312D36302D313170
:101C3C0031005468652047505320526563656976BE
:0C1C4C006564205369676E616C3A00000B
:00000001FF
